{
  "_format": "hh-sol-artifact-1",
  "contractName": "Jackpot",
  "sourceName": "contracts/games/Jackpot.sol",
  "abi": [
    {
      "inputs": [
        {
          "internalType": "address",
          "name": "_tokenContractAddress",
          "type": "address"
        }
      ],
      "stateMutability": "nonpayable",
      "type": "constructor"
    },
    {
      "anonymous": false,
      "inputs": [
        {
          "indexed": false,
          "internalType": "uint256",
          "name": "roundId",
          "type": "uint256"
        },
        {
          "indexed": false,
          "internalType": "address",
          "name": "account",
          "type": "address"
        },
        {
          "indexed": false,
          "internalType": "uint256",
          "name": "betAmount",
          "type": "uint256"
        }
      ],
      "name": "PlayerBetted",
      "type": "event"
    },
    {
      "anonymous": false,
      "inputs": [
        {
          "indexed": false,
          "internalType": "uint256",
          "name": "roundId",
          "type": "uint256"
        },
        {
          "indexed": false,
          "internalType": "uint256",
          "name": "winnerPrize",
          "type": "uint256"
        },
        {
          "indexed": false,
          "internalType": "address",
          "name": "winner",
          "type": "address"
        }
      ],
      "name": "RoundEnded",
      "type": "event"
    },
    {
      "anonymous": false,
      "inputs": [
        {
          "indexed": false,
          "internalType": "uint256",
          "name": "roundId",
          "type": "uint256"
        },
        {
          "indexed": false,
          "internalType": "uint256",
          "name": "totalAmount",
          "type": "uint256"
        },
        {
          "indexed": false,
          "internalType": "uint256",
          "name": "startTime",
          "type": "uint256"
        },
        {
          "indexed": false,
          "internalType": "uint256",
          "name": "endTime",
          "type": "uint256"
        },
        {
          "indexed": false,
          "internalType": "bool",
          "name": "winnerIsSelected",
          "type": "bool"
        }
      ],
      "name": "RoundStarted",
      "type": "event"
    },
    {
      "anonymous": false,
      "inputs": [
        {
          "indexed": false,
          "internalType": "address",
          "name": "winner",
          "type": "address"
        }
      ],
      "name": "WinnerClaimed",
      "type": "event"
    },
    {
      "anonymous": false,
      "inputs": [
        {
          "indexed": false,
          "internalType": "uint256",
          "name": "roundId",
          "type": "uint256"
        },
        {
          "indexed": false,
          "internalType": "uint256",
          "name": "totalAmount",
          "type": "uint256"
        }
      ],
      "name": "log",
      "type": "event"
    },
    {
      "inputs": [
        {
          "internalType": "address",
          "name": "_account",
          "type": "address"
        }
      ],
      "name": "balanceOf",
      "outputs": [
        {
          "internalType": "uint256",
          "name": "",
          "type": "uint256"
        }
      ],
      "stateMutability": "view",
      "type": "function"
    },
    {
      "inputs": [
        {
          "internalType": "uint256",
          "name": "_amount",
          "type": "uint256"
        },
        {
          "internalType": "uint256",
          "name": "_betTime",
          "type": "uint256"
        }
      ],
      "name": "betRound",
      "outputs": [],
      "stateMutability": "nonpayable",
      "type": "function"
    },
    {
      "inputs": [],
      "name": "duration",
      "outputs": [
        {
          "internalType": "uint256",
          "name": "",
          "type": "uint256"
        }
      ],
      "stateMutability": "view",
      "type": "function"
    },
    {
      "inputs": [],
      "name": "endRound",
      "outputs": [],
      "stateMutability": "payable",
      "type": "function"
    },
    {
      "inputs": [],
      "name": "getCurrentRoundId",
      "outputs": [
        {
          "internalType": "uint256",
          "name": "",
          "type": "uint256"
        }
      ],
      "stateMutability": "view",
      "type": "function"
    },
    {
      "inputs": [],
      "name": "getCurrentRoundInfo",
      "outputs": [
        {
          "components": [
            {
              "internalType": "uint256",
              "name": "roundId",
              "type": "uint256"
            },
            {
              "internalType": "uint256",
              "name": "totalAmount",
              "type": "uint256"
            },
            {
              "internalType": "uint256",
              "name": "startTime",
              "type": "uint256"
            },
            {
              "internalType": "uint256",
              "name": "endTime",
              "type": "uint256"
            },
            {
              "internalType": "bool",
              "name": "winnerIsSelected",
              "type": "bool"
            }
          ],
          "internalType": "struct Jackpot.JackpotRound",
          "name": "",
          "type": "tuple"
        }
      ],
      "stateMutability": "view",
      "type": "function"
    },
    {
      "inputs": [
        {
          "internalType": "uint256",
          "name": "id",
          "type": "uint256"
        },
        {
          "internalType": "address",
          "name": "player",
          "type": "address"
        }
      ],
      "name": "getIdToPlayerAmount",
      "outputs": [
        {
          "internalType": "uint256",
          "name": "",
          "type": "uint256"
        }
      ],
      "stateMutability": "view",
      "type": "function"
    },
    {
      "inputs": [
        {
          "internalType": "uint256",
          "name": "id",
          "type": "uint256"
        }
      ],
      "name": "getIdToPlayerList",
      "outputs": [
        {
          "internalType": "address[]",
          "name": "",
          "type": "address[]"
        }
      ],
      "stateMutability": "view",
      "type": "function"
    },
    {
      "inputs": [
        {
          "internalType": "uint256",
          "name": "id",
          "type": "uint256"
        },
        {
          "internalType": "address",
          "name": "player",
          "type": "address"
        }
      ],
      "name": "getIdToPlayerRange",
      "outputs": [
        {
          "components": [
            {
              "internalType": "uint256",
              "name": "startRange",
              "type": "uint256"
            },
            {
              "internalType": "uint256",
              "name": "endRange",
              "type": "uint256"
            }
          ],
          "internalType": "struct Jackpot.Range",
          "name": "",
          "type": "tuple"
        }
      ],
      "stateMutability": "view",
      "type": "function"
    },
    {
      "inputs": [
        {
          "internalType": "uint256",
          "name": "",
          "type": "uint256"
        }
      ],
      "name": "idToJackpotRound",
      "outputs": [
        {
          "internalType": "uint256",
          "name": "roundId",
          "type": "uint256"
        },
        {
          "internalType": "uint256",
          "name": "totalAmount",
          "type": "uint256"
        },
        {
          "internalType": "uint256",
          "name": "startTime",
          "type": "uint256"
        },
        {
          "internalType": "uint256",
          "name": "endTime",
          "type": "uint256"
        },
        {
          "internalType": "bool",
          "name": "winnerIsSelected",
          "type": "bool"
        }
      ],
      "stateMutability": "view",
      "type": "function"
    },
    {
      "inputs": [
        {
          "internalType": "uint256",
          "name": "",
          "type": "uint256"
        },
        {
          "internalType": "uint256",
          "name": "",
          "type": "uint256"
        }
      ],
      "name": "idToPlayerList",
      "outputs": [
        {
          "internalType": "address",
          "name": "",
          "type": "address"
        }
      ],
      "stateMutability": "view",
      "type": "function"
    },
    {
      "inputs": [
        {
          "internalType": "uint256",
          "name": "",
          "type": "uint256"
        },
        {
          "internalType": "address",
          "name": "",
          "type": "address"
        }
      ],
      "name": "idToPlayerRange",
      "outputs": [
        {
          "internalType": "uint256",
          "name": "startRange",
          "type": "uint256"
        },
        {
          "internalType": "uint256",
          "name": "endRange",
          "type": "uint256"
        }
      ],
      "stateMutability": "view",
      "type": "function"
    },
    {
      "inputs": [
        {
          "internalType": "uint256",
          "name": "_startTime",
          "type": "uint256"
        }
      ],
      "name": "startRound",
      "outputs": [],
      "stateMutability": "nonpayable",
      "type": "function"
    }
  ],
  "bytecode": "0x608060405260008055600a6001556078600255612710600355670de0b6b3a764000060045534801561003057600080fd5b506040516112c33803806112c383398101604081905261004f91610074565b600580546001600160a01b0319166001600160a01b03929092169190911790556100a2565b600060208284031215610085578081fd5b81516001600160a01b038116811461009b578182fd5b9392505050565b611212806100b16000396000f3fe6080604052600436106100c25760003560e01c8063749aa2d91161007f5780638180ca2b116100595780638180ca2b146101ed57806396c9a1211461021e578063e615264c1461024c578063f88eafc71461026c576100c2565b8063749aa2d91461019857806379b92a03146101a05780637c0b0625146101cd576100c2565b806305dbf5a7146100c75780630fb5a6b4146100fd5780635727e25d1461011f5780635fc3d52d1461013457806370a0823114610156578063747dff4214610176575b600080fd5b3480156100d357600080fd5b506100e76100e2366004610e88565b610299565b6040516100f4919061109c565b60405180910390f35b34801561010957600080fd5b506101126102df565b6040516100f491906110b3565b34801561012b57600080fd5b506101126102e5565b34801561014057600080fd5b5061015461014f366004610e58565b6102eb565b005b34801561016257600080fd5b50610112610171366004610e1e565b6103a9565b34801561018257600080fd5b5061018b610432565b6040516100f49190611060565b61015461048f565b3480156101ac57600080fd5b506101c06101bb366004610e58565b610600565b6040516100f49190610f33565b3480156101d957600080fd5b506101126101e8366004610e88565b61066c565b3480156101f957600080fd5b5061020d610208366004610e58565b610694565b6040516100f49594939291906110fa565b34801561022a57600080fd5b5061023e610239366004610e88565b6106c6565b6040516100f4929190610ed4565b34801561025857600080fd5b50610154610267366004610eb3565b6106ea565b34801561027857600080fd5b5061028c610287366004610eb3565b61081f565b6040516100f49190610ee2565b6102a1610dbc565b5060008281526009602090815260408083206001600160a01b0385168452825291829020825180840190935280548352600101549082015292915050565b60025481565b60005490565b6000600254826102fb919061111f565b6040805160a0810182526000805480835260208084018381528486018981526060860188815260808701868152948652600890935293869020855180825591516001820181905594516002820181905592516003820181905593516004909101805460ff1916821515179055955196975093957f5942489dd0610a8b71883dbb80ac8a6f667138939c504f9ac6b54b7817469f369561039c959493916110fa565b60405180910390a1505050565b6005546040516370a0823160e01b81526000916001600160a01b0316906370a08231906103da908590600401610ee2565b60206040518083038186803b1580156103f257600080fd5b505afa158015610406573d6000803e3d6000fd5b505050506040513d601f19601f8201168201806040525081019061042a9190610e70565b90505b919050565b61043a610dd6565b5060008054815260086020908152604091829020825160a081018452815481526001820154928101929092526002810154928201929092526003820154606082015260049091015460ff161515608082015290565b60008054815260086020908152604091829020825160a081018452815481526001820154928101929092526002810154928201929092526003820154606082015260049091015460ff1615801560808301526105065760405162461bcd60e51b81526004016104fd90611013565b60405180910390fd5b6000806000836020015111156105cc5761051f83610857565b91507f96df49ad839465bc2a75bce245ce4ab94f911cad0624cb323b058b343ddcde69826040516105509190610ee2565b60405180910390a160646001546064610569919061116a565b8460200151610578919061114b565b6105829190611137565b905061058e8282610c3f565b7f9d9b49054684eabb92eae11e47855ee779f94b68ee0604885c5070c93b84697a60005482846040516105c3939291906110db565b60405180910390a15b600080548152600860205260408120600401805460ff19166001179055805490806105f683611181565b9190505550505050565b60008181526007602090815260409182902080548351818402810184019094528084526060939283018282801561066057602002820191906000526020600020905b81546001600160a01b03168152600190910190602001808311610642575b50505050509050919050565b60009182526006602090815260408084206001600160a01b0393909316845291905290205490565b600860205260009081526040902080546001820154600283015460038401546004909401549293919290919060ff1685565b60096020908152600092835260408084209091529082529020805460019091015482565b60008054815260086020526040902033906107058184610cc8565b6107215760405162461bcd60e51b81526004016104fd90610f80565b600061072c836103a9565b90508481101561074e5760405162461bcd60e51b81526004016104fd90610fc1565b6000805481526007602090815260408083208054600180820183559185528385200180546001600160a01b0319166001600160a01b03891617905583548452600890925282200180548792906107a590849061111f565b90915550506000805481526006602090815260408083206001600160a01b038716845290915290208590556107db833087610ce9565b7f2f67d8a4e70310e94b6066d752e9534ab6ff71ebf2137ebf1eadd3b8e62256ba6000548487604051610810939291906110bc565b60405180910390a15050505050565b6007602052816000526040600020818154811061083b57600080fd5b6000918252602090912001546001600160a01b03169150829050565b60008082602001519050600061086f60005483610d75565b905060008080805b60008054815260076020526040902054811015610b66576000805481526007602052604090208054829081106108bd57634e487b7160e01b600052603260045260246000fd5b6000918252602080832090910154825483526006825260408084206001600160a01b0390921680855291909252912054909350915080610961576000805481526009602090815260408083206001600160a01b03871684529091529020600190558561092b8361271061114b565b6109359190611137565b6000805481526009602090815260408083206001600160a01b0388168452909152902060010155610b54565b6000805481526007602052604090205461097d9060019061116a565b811415610a485760008054815260076020526040812061099e60018461116a565b815481106109bc57634e487b7160e01b600052603260045260246000fd5b6000918252602080832090910154825483526009825260408084206001600160a01b039092168085529190925291206001908101549192506109fe919061111f565b6000805481526009602081815260408084206001600160a01b038a168086529083528185209590955583548452918152818320938352929092522061271060019091015550610b54565b600080548152600760205260408120610a6260018461116a565b81548110610a8057634e487b7160e01b600052603260045260246000fd5b6000918252602080832090910154825483526009825260408084206001600160a01b03909216808552919092529120600190810154919250610ac2919061111f565b6000805481526009602090815260408083206001600160a01b038916845290915290205586610af38461271061114b565b610afd9190611137565b6000805481526009602090815260408083206001600160a01b0389168452909152902054610b2b919061111f565b6000805481526009602090815260408083206001600160a01b0389168452909152902060010155505b80610b5e81611181565b915050610877565b5060005b60008054815260076020526040902054811015610c3357600080548152600760205260409020805482908110610bb057634e487b7160e01b600052603260045260246000fd5b6000918252602080832090910154825483526009825260408084206001600160a01b03909216808552919092529120549093508510801590610c1857506000805481526009602090815260408083206001600160a01b03871684529091529020600101548511155b15610c21578293505b80610c2b81611181565b915050610b6a565b50919695505050505050565b60055460405163a9059cbb60e01b81526001600160a01b039091169063a9059cbb90610c719085908590600401610f1a565b602060405180830381600087803b158015610c8b57600080fd5b505af1158015610c9f573d6000803e3d6000fd5b505050506040513d601f19601f82011682018060405250810190610cc39190610e38565b505050565b600081836002015411158015610ce2575082600301548211155b9392505050565b6005546040516323b872dd60e01b81526001600160a01b03909116906323b872dd90610d1d90869086908690600401610ef6565b602060405180830381600087803b158015610d3757600080fd5b505af1158015610d4b573d6000803e3d6000fd5b505050506040513d601f19601f82011682018060405250810190610d6f9190610e38565b50505050565b6000808383604051602001610d8b929190610ed4565b6040516020818303038152906040528051906020012060001c905060035481610db4919061119c565b949350505050565b604051806040016040528060008152602001600081525090565b6040518060a00160405280600081526020016000815260200160008152602001600081526020016000151581525090565b80356001600160a01b038116811461042d57600080fd5b600060208284031215610e2f578081fd5b610ce282610e07565b600060208284031215610e49578081fd5b81518015158114610ce2578182fd5b600060208284031215610e69578081fd5b5035919050565b600060208284031215610e81578081fd5b5051919050565b60008060408385031215610e9a578081fd5b82359150610eaa60208401610e07565b90509250929050565b60008060408385031215610ec5578182fd5b50508035926020909101359150565b918252602082015260400190565b6001600160a01b0391909116815260200190565b6001600160a01b039384168152919092166020820152604081019190915260600190565b6001600160a01b03929092168252602082015260400190565b6020808252825182820181905260009190848201906040850190845b81811015610f745783516001600160a01b031683529284019291840191600101610f4f565b50909695505050505050565b60208082526021908201527f54686973204a61636b706f7420526f756e64206973206e6f74206f70656e65646040820152602160f81b606082015260800190565b60208082526032908201527f4a61636b706f743a3a626574526f756e643a207472616e7366657220616d6f756040820152716e7420657863656564732062616c616e636560701b606082015260800190565b6020808252602d908201527f5468652077696e6e6572206f66207468697320726f756e6420697320616c726560408201526c6164792073656c65637465642160981b606082015260800190565b600060a0820190508251825260208301516020830152604083015160408301526060830151606083015260808301511515608083015292915050565b815181526020918201519181019190915260400190565b90815260200190565b9283526001600160a01b03919091166020830152604082015260600190565b92835260208301919091526001600160a01b0316604082015260600190565b9485526020850193909352604084019190915260608301521515608082015260a00190565b60008219821115611132576111326111b0565b500190565b600082611146576111466111c6565b500490565b6000816000190483118215151615611165576111656111b0565b500290565b60008282101561117c5761117c6111b0565b500390565b6000600019821415611195576111956111b0565b5060010190565b6000826111ab576111ab6111c6565b500690565b634e487b7160e01b600052601160045260246000fd5b634e487b7160e01b600052601260045260246000fdfea2646970667358221220469c5b4baf1c465b00ae53fc57df4bb2581e8137a1609272f698e421a19022d164736f6c63430008000033",
  "linkReferences": {},
  "deployedLinkReferences": {}
}