{
  "_format": "hh-sol-artifact-1",
  "contractName": "SpaceCredit",
  "sourceName": "contracts/SpaceCredit.sol",
  "abi": [
    {
      "inputs": [],
      "stateMutability": "nonpayable",
      "type": "constructor"
    },
    {
      "anonymous": false,
      "inputs": [
        {
          "indexed": true,
          "internalType": "address",
          "name": "owner",
          "type": "address"
        },
        {
          "indexed": true,
          "internalType": "address",
          "name": "spender",
          "type": "address"
        },
        {
          "indexed": false,
          "internalType": "uint256",
          "name": "value",
          "type": "uint256"
        }
      ],
      "name": "Approval",
      "type": "event"
    },
    {
      "anonymous": false,
      "inputs": [
        {
          "indexed": true,
          "internalType": "address",
          "name": "from",
          "type": "address"
        },
        {
          "indexed": true,
          "internalType": "address",
          "name": "to",
          "type": "address"
        },
        {
          "indexed": false,
          "internalType": "uint256",
          "name": "value",
          "type": "uint256"
        }
      ],
      "name": "Transfer",
      "type": "event"
    },
    {
      "inputs": [
        {
          "internalType": "address",
          "name": "owner",
          "type": "address"
        },
        {
          "internalType": "address",
          "name": "spender",
          "type": "address"
        }
      ],
      "name": "allowance",
      "outputs": [
        {
          "internalType": "uint256",
          "name": "",
          "type": "uint256"
        }
      ],
      "stateMutability": "view",
      "type": "function"
    },
    {
      "inputs": [
        {
          "internalType": "address",
          "name": "spender",
          "type": "address"
        },
        {
          "internalType": "uint256",
          "name": "amount",
          "type": "uint256"
        }
      ],
      "name": "approve",
      "outputs": [
        {
          "internalType": "bool",
          "name": "",
          "type": "bool"
        }
      ],
      "stateMutability": "nonpayable",
      "type": "function"
    },
    {
      "inputs": [
        {
          "internalType": "address",
          "name": "owner",
          "type": "address"
        },
        {
          "internalType": "address",
          "name": "spender",
          "type": "address"
        },
        {
          "internalType": "uint256",
          "name": "amount",
          "type": "uint256"
        }
      ],
      "name": "approveFrom",
      "outputs": [],
      "stateMutability": "nonpayable",
      "type": "function"
    },
    {
      "inputs": [
        {
          "internalType": "address",
          "name": "account",
          "type": "address"
        }
      ],
      "name": "balanceOf",
      "outputs": [
        {
          "internalType": "uint256",
          "name": "",
          "type": "uint256"
        }
      ],
      "stateMutability": "view",
      "type": "function"
    },
    {
      "inputs": [],
      "name": "decimals",
      "outputs": [
        {
          "internalType": "uint8",
          "name": "",
          "type": "uint8"
        }
      ],
      "stateMutability": "view",
      "type": "function"
    },
    {
      "inputs": [
        {
          "internalType": "address",
          "name": "spender",
          "type": "address"
        },
        {
          "internalType": "uint256",
          "name": "subtractedValue",
          "type": "uint256"
        }
      ],
      "name": "decreaseAllowance",
      "outputs": [
        {
          "internalType": "bool",
          "name": "",
          "type": "bool"
        }
      ],
      "stateMutability": "nonpayable",
      "type": "function"
    },
    {
      "inputs": [
        {
          "internalType": "address",
          "name": "spender",
          "type": "address"
        },
        {
          "internalType": "uint256",
          "name": "addedValue",
          "type": "uint256"
        }
      ],
      "name": "increaseAllowance",
      "outputs": [
        {
          "internalType": "bool",
          "name": "",
          "type": "bool"
        }
      ],
      "stateMutability": "nonpayable",
      "type": "function"
    },
    {
      "inputs": [
        {
          "internalType": "address",
          "name": "account",
          "type": "address"
        },
        {
          "internalType": "uint256",
          "name": "amount",
          "type": "uint256"
        }
      ],
      "name": "mint",
      "outputs": [],
      "stateMutability": "nonpayable",
      "type": "function"
    },
    {
      "inputs": [],
      "name": "name",
      "outputs": [
        {
          "internalType": "string",
          "name": "",
          "type": "string"
        }
      ],
      "stateMutability": "view",
      "type": "function"
    },
    {
      "inputs": [],
      "name": "symbol",
      "outputs": [
        {
          "internalType": "string",
          "name": "",
          "type": "string"
        }
      ],
      "stateMutability": "view",
      "type": "function"
    },
    {
      "inputs": [],
      "name": "totalSupply",
      "outputs": [
        {
          "internalType": "uint256",
          "name": "",
          "type": "uint256"
        }
      ],
      "stateMutability": "view",
      "type": "function"
    },
    {
      "inputs": [
        {
          "internalType": "address",
          "name": "spender",
          "type": "address"
        },
        {
          "internalType": "uint256",
          "name": "amount",
          "type": "uint256"
        }
      ],
      "name": "transfer",
      "outputs": [
        {
          "internalType": "bool",
          "name": "",
          "type": "bool"
        }
      ],
      "stateMutability": "nonpayable",
      "type": "function"
    },
    {
      "inputs": [
        {
          "internalType": "address",
          "name": "from",
          "type": "address"
        },
        {
          "internalType": "address",
          "name": "to",
          "type": "address"
        },
        {
          "internalType": "uint256",
          "name": "amount",
          "type": "uint256"
        }
      ],
      "name": "transferFrom",
      "outputs": [
        {
          "internalType": "bool",
          "name": "",
          "type": "bool"
        }
      ],
      "stateMutability": "nonpayable",
      "type": "function"
    }
  ],
  "bytecode": "0x608060405234801561001057600080fd5b5060405180604001604052806005815260200164535041434560d81b8152506040518060400160405280600381526020016253504360e81b815250816003908051906020019061006192919061007d565b50805161007590600490602084019061007d565b505050610151565b82805461008990610116565b90600052602060002090601f0160209004810192826100ab57600085556100f1565b82601f106100c457805160ff19168380011785556100f1565b828001600101855582156100f1579182015b828111156100f15782518255916020019190600101906100d6565b506100fd929150610101565b5090565b5b808211156100fd5760008155600101610102565b60028104600182168061012a57607f821691505b6020821081141561014b57634e487b7160e01b600052602260045260246000fd5b50919050565b610a61806101606000396000f3fe608060405234801561001057600080fd5b50600436106100cf5760003560e01c806340c10f191161008c57806395d89b411161006657806395d89b411461019d578063a457c2d7146101a5578063a9059cbb146101b8578063dd62ed3e146101cb576100cf565b806340c10f191461016257806352ec85291461017757806370a082311461018a576100cf565b806306fdde03146100d4578063095ea7b3146100f257806318160ddd1461011257806323b872dd14610127578063313ce5671461013a578063395093511461014f575b600080fd5b6100dc6101de565b6040516100e9919061075b565b60405180910390f35b610105610100366004610727565b610270565b6040516100e99190610750565b61011a610292565b6040516100e991906109b5565b6101056101353660046106ec565b610298565b6101426102c6565b6040516100e991906109be565b61010561015d366004610727565b6102cb565b610175610170366004610727565b6102f7565b005b6101756101853660046106ec565b610305565b61011a610198366004610699565b610315565b6100dc610334565b6101056101b3366004610727565b610343565b6101056101c6366004610727565b610394565b61011a6101d93660046106ba565b6103aa565b6060600380546101ed906109f0565b80601f0160208091040260200160405190810160405280929190818152602001828054610219906109f0565b80156102665780601f1061023b57610100808354040283529160200191610266565b820191906000526020600020905b81548152906001019060200180831161024957829003601f168201915b5050505050905090565b60008061027b6103d5565b90506102888185856103d9565b5060019392505050565b60025490565b6000806102a36103d5565b90506102b085828561048d565b6102bb8585856104d7565b506001949350505050565b601290565b6000806102d66103d5565b90506102888185856102e885896103aa565b6102f291906109cc565b6103d9565b61030182826105d8565b5050565b6103108383836103d9565b505050565b6001600160a01b0381166000908152602081905260409020545b919050565b6060600480546101ed906109f0565b60008061034e6103d5565b9050600061035c82866103aa565b9050838110156103875760405162461bcd60e51b815260040161037e90610939565b60405180910390fd5b6102bb82868684036103d9565b60006103a13384846104d7565b50600192915050565b6001600160a01b03918216600090815260016020908152604080832093909416825291909152205490565b3390565b6001600160a01b0383166103ff5760405162461bcd60e51b815260040161037e906108f5565b6001600160a01b0382166104255760405162461bcd60e51b815260040161037e906107f1565b6001600160a01b0380841660008181526001602090815260408083209487168084529490915290819020849055517f8c5be1e5ebec7d5bd14f71427d1e84f3dd0314c0f7b2291e5b200ac8c7c3b925906104809085906109b5565b60405180910390a3505050565b600061049984846103aa565b905060001981146104d157818110156104c45760405162461bcd60e51b815260040161037e90610833565b6104d184848484036103d9565b50505050565b6001600160a01b0383166104fd5760405162461bcd60e51b815260040161037e906108b0565b6001600160a01b0382166105235760405162461bcd60e51b815260040161037e906107ae565b61052e838383610310565b6001600160a01b038316600090815260208190526040902054818110156105675760405162461bcd60e51b815260040161037e9061086a565b6001600160a01b0380851660008181526020819052604080822086860390559286168082529083902080548601905591517fddf252ad1be2c89b69c2b068fc378daa952ba7f163c4a11628f55a4df523b3ef906105c59086906109b5565b60405180910390a36104d1848484610310565b6001600160a01b0382166105fe5760405162461bcd60e51b815260040161037e9061097e565b61060a60008383610310565b806002600082825461061c91906109cc565b90915550506001600160a01b038216600081815260208190526040808220805485019055517fddf252ad1be2c89b69c2b068fc378daa952ba7f163c4a11628f55a4df523b3ef9061066e9085906109b5565b60405180910390a361030160008383610310565b80356001600160a01b038116811461032f57600080fd5b6000602082840312156106aa578081fd5b6106b382610682565b9392505050565b600080604083850312156106cc578081fd5b6106d583610682565b91506106e360208401610682565b90509250929050565b600080600060608486031215610700578081fd5b61070984610682565b925061071760208501610682565b9150604084013590509250925092565b60008060408385031215610739578182fd5b61074283610682565b946020939093013593505050565b901515815260200190565b6000602080835283518082850152825b818110156107875785810183015185820160400152820161076b565b818111156107985783604083870101525b50601f01601f1916929092016040019392505050565b60208082526023908201527f45524332303a207472616e7366657220746f20746865207a65726f206164647260408201526265737360e81b606082015260800190565b60208082526022908201527f45524332303a20617070726f766520746f20746865207a65726f206164647265604082015261737360f01b606082015260800190565b6020808252601d908201527f45524332303a20696e73756666696369656e7420616c6c6f77616e6365000000604082015260600190565b60208082526026908201527f45524332303a207472616e7366657220616d6f756e7420657863656564732062604082015265616c616e636560d01b606082015260800190565b60208082526025908201527f45524332303a207472616e736665722066726f6d20746865207a65726f206164604082015264647265737360d81b606082015260800190565b60208082526024908201527f45524332303a20617070726f76652066726f6d20746865207a65726f206164646040820152637265737360e01b606082015260800190565b60208082526025908201527f45524332303a2064656372656173656420616c6c6f77616e63652062656c6f77604082015264207a65726f60d81b606082015260800190565b6020808252601f908201527f45524332303a206d696e7420746f20746865207a65726f206164647265737300604082015260600190565b90815260200190565b60ff91909116815260200190565b600082198211156109eb57634e487b7160e01b81526011600452602481fd5b500190565b600281046001821680610a0457607f821691505b60208210811415610a2557634e487b7160e01b600052602260045260246000fd5b5091905056fea2646970667358221220aab33d64e49d5e71891353b3ecc5856e938aefe23560d61cfbe74992de28ef4e64736f6c63430008000033",
  "linkReferences": {},
  "deployedLinkReferences": {}
}